{
  "contracts/SimpleSwap.sol": {
    "SimpleSwap": {
      "abi": [
        {
          "anonymous": false,
          "inputs": [
            {
              "indexed": true,
              "internalType": "address",
              "name": "user",
              "type": "address"
            },
            {
              "indexed": false,
              "internalType": "uint256",
              "name": "amountA",
              "type": "uint256"
            },
            {
              "indexed": false,
              "internalType": "uint256",
              "name": "amountB",
              "type": "uint256"
            },
            {
              "indexed": false,
              "internalType": "uint256",
              "name": "liquidity",
              "type": "uint256"
            }
          ],
          "name": "LiquidityAdded",
          "type": "event"
        },
        {
          "anonymous": false,
          "inputs": [
            {
              "indexed": true,
              "internalType": "address",
              "name": "user",
              "type": "address"
            },
            {
              "indexed": false,
              "internalType": "uint256",
              "name": "amountA",
              "type": "uint256"
            },
            {
              "indexed": false,
              "internalType": "uint256",
              "name": "amountB",
              "type": "uint256"
            },
            {
              "indexed": false,
              "internalType": "uint256",
              "name": "liquidity",
              "type": "uint256"
            }
          ],
          "name": "LiquidityRemoved",
          "type": "event"
        },
        {
          "anonymous": false,
          "inputs": [
            {
              "indexed": true,
              "internalType": "address",
              "name": "user",
              "type": "address"
            },
            {
              "indexed": false,
              "internalType": "address",
              "name": "tokenIn",
              "type": "address"
            },
            {
              "indexed": false,
              "internalType": "address",
              "name": "tokenOut",
              "type": "address"
            },
            {
              "indexed": false,
              "internalType": "uint256",
              "name": "amountIn",
              "type": "uint256"
            },
            {
              "indexed": false,
              "internalType": "uint256",
              "name": "amountOut",
              "type": "uint256"
            }
          ],
          "name": "Swap",
          "type": "event"
        },
        {
          "inputs": [
            {
              "internalType": "address",
              "name": "_tokenA",
              "type": "address"
            },
            {
              "internalType": "address",
              "name": "_tokenB",
              "type": "address"
            },
            {
              "internalType": "uint256",
              "name": "amountADesired",
              "type": "uint256"
            },
            {
              "internalType": "uint256",
              "name": "amountBDesired",
              "type": "uint256"
            },
            {
              "internalType": "uint256",
              "name": "amountAMin",
              "type": "uint256"
            },
            {
              "internalType": "uint256",
              "name": "amountBMin",
              "type": "uint256"
            },
            {
              "internalType": "address",
              "name": "to",
              "type": "address"
            },
            {
              "internalType": "uint256",
              "name": "deadline",
              "type": "uint256"
            }
          ],
          "name": "addLiquidity",
          "outputs": [
            {
              "internalType": "uint256",
              "name": "amountA",
              "type": "uint256"
            },
            {
              "internalType": "uint256",
              "name": "amountB",
              "type": "uint256"
            },
            {
              "internalType": "uint256",
              "name": "liquidity",
              "type": "uint256"
            }
          ],
          "stateMutability": "nonpayable",
          "type": "function"
        },
        {
          "inputs": [
            {
              "internalType": "address",
              "name": "",
              "type": "address"
            }
          ],
          "name": "balanceOf",
          "outputs": [
            {
              "internalType": "uint256",
              "name": "",
              "type": "uint256"
            }
          ],
          "stateMutability": "view",
          "type": "function"
        },
        {
          "inputs": [
            {
              "internalType": "uint256",
              "name": "amountIn",
              "type": "uint256"
            },
            {
              "internalType": "uint256",
              "name": "reserveIn",
              "type": "uint256"
            },
            {
              "internalType": "uint256",
              "name": "reserveOut",
              "type": "uint256"
            }
          ],
          "name": "getAmountOut",
          "outputs": [
            {
              "internalType": "uint256",
              "name": "",
              "type": "uint256"
            }
          ],
          "stateMutability": "pure",
          "type": "function"
        },
        {
          "inputs": [
            {
              "internalType": "address",
              "name": "_tokenIn",
              "type": "address"
            },
            {
              "internalType": "address",
              "name": "_tokenOut",
              "type": "address"
            },
            {
              "internalType": "uint256",
              "name": "amountIn",
              "type": "uint256"
            }
          ],
          "name": "getAmountOut",
          "outputs": [
            {
              "internalType": "uint256",
              "name": "amountOut",
              "type": "uint256"
            }
          ],
          "stateMutability": "view",
          "type": "function"
        },
        {
          "inputs": [
            {
              "internalType": "address",
              "name": "_tokenA",
              "type": "address"
            },
            {
              "internalType": "address",
              "name": "_tokenB",
              "type": "address"
            }
          ],
          "name": "getPrice",
          "outputs": [
            {
              "internalType": "uint256",
              "name": "price",
              "type": "uint256"
            }
          ],
          "stateMutability": "view",
          "type": "function"
        },
        {
          "inputs": [],
          "name": "getReserves",
          "outputs": [
            {
              "internalType": "uint256",
              "name": "_reserveA",
              "type": "uint256"
            },
            {
              "internalType": "uint256",
              "name": "_reserveB",
              "type": "uint256"
            }
          ],
          "stateMutability": "view",
          "type": "function"
        },
        {
          "inputs": [
            {
              "internalType": "address",
              "name": "_tokenA",
              "type": "address"
            },
            {
              "internalType": "address",
              "name": "_tokenB",
              "type": "address"
            }
          ],
          "name": "initialize",
          "outputs": [],
          "stateMutability": "nonpayable",
          "type": "function"
        },
        {
          "inputs": [
            {
              "internalType": "address",
              "name": "_tokenA",
              "type": "address"
            },
            {
              "internalType": "address",
              "name": "_tokenB",
              "type": "address"
            },
            {
              "internalType": "uint256",
              "name": "liquidity",
              "type": "uint256"
            },
            {
              "internalType": "uint256",
              "name": "amountAMin",
              "type": "uint256"
            },
            {
              "internalType": "uint256",
              "name": "amountBMin",
              "type": "uint256"
            },
            {
              "internalType": "address",
              "name": "to",
              "type": "address"
            },
            {
              "internalType": "uint256",
              "name": "deadline",
              "type": "uint256"
            }
          ],
          "name": "removeLiquidity",
          "outputs": [
            {
              "internalType": "uint256",
              "name": "amountA",
              "type": "uint256"
            },
            {
              "internalType": "uint256",
              "name": "amountB",
              "type": "uint256"
            }
          ],
          "stateMutability": "nonpayable",
          "type": "function"
        },
        {
          "inputs": [],
          "name": "reserveA",
          "outputs": [
            {
              "internalType": "uint256",
              "name": "",
              "type": "uint256"
            }
          ],
          "stateMutability": "view",
          "type": "function"
        },
        {
          "inputs": [],
          "name": "reserveB",
          "outputs": [
            {
              "internalType": "uint256",
              "name": "",
              "type": "uint256"
            }
          ],
          "stateMutability": "view",
          "type": "function"
        },
        {
          "inputs": [
            {
              "internalType": "uint256",
              "name": "amountIn",
              "type": "uint256"
            },
            {
              "internalType": "uint256",
              "name": "amountOutMin",
              "type": "uint256"
            },
            {
              "internalType": "address[]",
              "name": "path",
              "type": "address[]"
            },
            {
              "internalType": "address",
              "name": "to",
              "type": "address"
            },
            {
              "internalType": "uint256",
              "name": "deadline",
              "type": "uint256"
            }
          ],
          "name": "swapExactTokensForTokens",
          "outputs": [],
          "stateMutability": "nonpayable",
          "type": "function"
        },
        {
          "inputs": [],
          "name": "tokenA",
          "outputs": [
            {
              "internalType": "address",
              "name": "",
              "type": "address"
            }
          ],
          "stateMutability": "view",
          "type": "function"
        },
        {
          "inputs": [],
          "name": "tokenB",
          "outputs": [
            {
              "internalType": "address",
              "name": "",
              "type": "address"
            }
          ],
          "stateMutability": "view",
          "type": "function"
        },
        {
          "inputs": [],
          "name": "totalSupply",
          "outputs": [
            {
              "internalType": "uint256",
              "name": "",
              "type": "uint256"
            }
          ],
          "stateMutability": "view",
          "type": "function"
        }
      ],
      "evm": {
        "bytecode": {
          "linkReferences": {},
          "object": "608080604052346100165761129c908161001c8239f35b600080fdfe6080604052600436101561001257600080fd5b60003560e01c8063054d50d414610e885780630902f1ac14610e635780630fc63d1014610e3a57806318160ddd14610e1c57806319e36f3b14610dfe57806338ed173914610af9578063485cc95514610a3a5780634aa06652146109485780635f64b55b1461091f57806370a08231146108e5578063ac41865a1461080d578063baa2abde1461053c578063dc5fa6c51461051e5763e8e33700146100b657600080fd5b3461051957610100366003190112610519576100d0610eac565b6100d8610ec2565b604435916064359060c4356001600160a01b03811681036105195761010160e435421115610ed8565b6101156001600160a01b0382161515610f56565b6000546001546002546003546004549096909591939092906001600160a01b03808216908316816104db5750506001600160a01b038981169290841661015d81851415611085565b801515806104d2575b61016f90610f56565b6001600160a01b031992831617600055161760015595905b600254906003548215806104ca575b1561046d5750905096955b6040516323b872dd60e01b81523360048201523060248201526044810188905290602090829060649082906000906001600160a01b03165af180156104425761044e575b506040516323b872dd60e01b81523360048201523060248201526044810188905290602090829060649082906000906001600160a01b03165af1801561044257610413575b50826103db5761023a86866110ff565b600060038211156103cd5750808060011c6001810180911161039857905b8282106103ae5750505b6103e7198101908111610398576000805260056020526103e87f05b8ccbb9d4d8fb16ea74ce3c29a41f1b461fbdaff4714a0d9a8eb05499746bc55925b831561035a57610356946102e7876102ef946102df888c9660018060a01b038a16600052600560205260406000206102d883825461106b565b905561106b565b60045561106b565b60025561106b565b60035560408051858152602081018790529081018390526001600160a01b0391909116907f64b83944e79c3ce8d4c297411de637c3e102d064677aac0c163976ebdcd6f50e90606090a2604051938493846040919493926060820195825260208201520152565b0390f35b60405162461bcd60e51b8152602060048201526016602482015275496e73756666696369656e74206c697175696469747960501b6044820152606490fd5b634e487b7160e01b600052601160045260246000fd5b9091506103c4826103bf8184611112565b61106b565b60011c90610258565b901561026257506001610262565b6103ee816103e985886110ff565b611112565b6103fc856103e9868a6110ff565b8082101561040c57505b9261029f565b9050610406565b6104349060203d60201161043b575b61042c818361101b565b810190611053565b503861022a565b503d610422565b6040513d6000823e3d90fd5b6104669060203d60201161043b5761042c818361101b565b50386101e5565b61047b836103e9838d6110ff565b9282841161049b5750505061049460a4358210156111b3565b96956101a1565b8293506103e9906104ab936110ff565b97881115806104be575b6104949061116f565b506084358810156104b5565b508015610196565b50831515610166565b909990949361050193506001600160a01b03168a149150849082610506575b5050611132565b610187565b6001600160a01b031614905083386104fa565b600080fd5b34610519576000366003190112610519576020600254604051908152f35b346105195760e036600319011261051957610555610eac565b61055d610ec2565b9060a4356001600160a01b03811690036105195761057f60c435421115610ed8565b604435156107d75761059d60a4356001600160a01b03161515610f56565b6000805460015460025460035460045433865260056020526040909520546001600160a01b039384169791969295948416949390926105e99291168514908890826107c4575050611132565b6044358110610788576106649461066c8386610611610674966103e961064c9a6044356110ff565b98826106248b946103e9886044356110ff565b998a9761063560643587101561116f565b6106436084358a10156111b3565b60443590611078565b33600052600560205260406000205560443590611078565b600455611078565b600255611078565b60035560405163a9059cbb60e01b80825260a4356001600160a01b03166004830152602482018590529091602090839060449082906000905af19182156104425760209261076b575b5060405190815260a4356001600160a01b031660048201526024810183905293849060449082906000905af19283156104425760409361074c575b5082518281526020810182905260443560408201526001600160a01b0360a43516907f1dc8bb69df2b8e91fbdcbfcf93d951b3f0000f085a95fe3f7946d6161439245d90606090a282519182526020820152f35b6107649060203d60201161043b5761042c818361101b565b50836106f8565b61078190833d851161043b5761042c818361101b565b50856106bd565b60405162461bcd60e51b8152602060048201526014602482015273496e73756666696369656e742062616c616e636560601b6044820152606490fd5b6001600160a01b031614905087896104fa565b60405162461bcd60e51b815260206004820152600e60248201526d125b9d985b1a5908185b5bdd5b9d60921b6044820152606490fd5b3461051957604036600319011261051957610826610eac565b61082e610ec2565b60018060a01b036108608160005416928260015416600254948460035497161493849283956108d9575b505050611132565b8115908115806108d0575b610874906110c4565b156108a9575090670de0b6b3a764000090818102918183041490151715610398576020916108a191611112565b604051908152f35b670de0b6b3a7640000808302928304141715610398576020916108cb91611112565b6108a1565b5083151561086b565b16149050858080610858565b34610519576020366003190112610519576001600160a01b03610906610eac565b1660005260056020526020604060002054604051908152f35b34610519576000366003190112610519576001546040516001600160a01b039091168152602090f35b346105195760603660031901126105195760206108a1610966610eac565b610a09610971610ec2565b610a0360443591610983831515610f1a565b6001600160a01b039485169490811661099e86821415610fe1565b6109db826000541692600154169160025492600354946109cb818b1483819c8215610a30575b5050610fa5565b8214918215610a26575050610fa5565b80151580610a1d575b6109ed906110c4565b8515610a165780955b15610a0f57505b826110ff565b9261106b565b90611112565b90506109fd565b81956109f6565b508115156109e4565b1490508a806109c4565b149050838f6109c4565b3461051957604036600319011261051957610a53610eac565b610a5b610ec2565b600054906001600160a01b0390818316610abe5781169216610a7f83821415611085565b80151580610ab5575b610a9190610f56565b6bffffffffffffffffffffffff60a01b809216176000556001541617600155600080f35b50821515610a88565b60405162461bcd60e51b8152602060048201526013602482015272105b1c9958591e481a5b9a5d1a585b1a5e9959606a1b6044820152606490fd5b346105195760a03660031901126105195767ffffffffffffffff602460043560443583811161051957366023820112156105195780600401359384116105195736838560051b83010111610519576001600160a01b03936064359085821680830361051957610b6c608435421115610ed8565b610b77851515610f1a565b60028203610dcb57610b8a901515610f56565b856000541692866001541660025490600354928415610db657610bae898201610f91565b9460011015610db6579089610bc86044610bf29401610f91565b951699878b1495868015610dad575b610be090610fa5565b16968714908115610da3575b50610fa5565b610bfe85891415610fe1565b8215610d9a57610c18815b8415610d935783905b886111f7565b9680358810610d5957506040516323b872dd60e01b81523360048201523060248201526044810187905260209493929190858160648160008e5af1801561044257610c989587928b92610d3c575b5060405163a9059cbb60e01b81526001600160a01b039091166004820152602481019190915294859081906044820190565b038160008a5af19283156104425787948994610d1f575b5015610d0157610cc29361066c9161106b565b6003555b604051948552840152604083015260608201527fcd3829a3813dc3cdd188fd3d01dcf3268c16be2fdd2dd21d0665418816e4606260803392a2005b90610d1793610d0f9161106b565b600355611078565b600255610cc6565b610d3590873d891161043b5761042c818361101b565b508a610caf565b610d5290843d861161043b5761042c818361101b565b508c610c66565b60649060136040519162461bcd60e51b83526020600484015282015272125b9cdd59999a58da595b9d081bdd5d1c1d5d606a1b6044820152fd5b8290610c12565b610c1882610c09565b905086148a610bec565b508b8314610bd7565b88634e487b7160e01b60005260326004526000fd5b60405162461bcd60e51b815260206004820152600c818801526b092dcecc2d8d2c840e0c2e8d60a31b6044820152606490fd5b34610519576000366003190112610519576020600354604051908152f35b34610519576000366003190112610519576020600454604051908152f35b34610519576000366003190112610519576000546040516001600160a01b039091168152602090f35b3461051957600036600319011261051957604060025460035482519182526020820152f35b346105195760603660031901126105195760206108a16044356024356004356111f7565b600435906001600160a01b038216820361051957565b602435906001600160a01b038216820361051957565b15610edf57565b60405162461bcd60e51b8152602060048201526013602482015272151c985b9cd858dd1a5bdb88195e1c1a5c9959606a1b6044820152606490fd5b15610f2157565b60405162461bcd60e51b815260206004820152600d60248201526c125b9d985b1a59081a5b9c1d5d609a1b6044820152606490fd5b15610f5d57565b60405162461bcd60e51b815260206004820152600c60248201526b5a65726f206164647265737360a01b6044820152606490fd5b356001600160a01b03811681036105195790565b15610fac57565b60405162461bcd60e51b815260206004820152600d60248201526c24b73b30b634b2103a37b5b2b760991b6044820152606490fd5b15610fe857565b60405162461bcd60e51b815260206004820152600b60248201526a53616d6520746f6b656e7360a81b6044820152606490fd5b90601f8019910116810190811067ffffffffffffffff82111761103d57604052565b634e487b7160e01b600052604160045260246000fd5b90816020910312610519575180151581036105195790565b9190820180921161039857565b9190820391821161039857565b1561108c57565b60405162461bcd60e51b815260206004820152601060248201526f4964656e746963616c20746f6b656e7360801b6044820152606490fd5b156110cb57565b60405162461bcd60e51b815260206004820152600c60248201526b4e6f206c697175696469747960a01b6044820152606490fd5b8181029291811591840414171561039857565b811561111c570490565b634e487b7160e01b600052601260045260246000fd5b1561113957565b60405162461bcd60e51b815260206004820152600e60248201526d496e76616c696420746f6b656e7360901b6044820152606490fd5b1561117657565b60405162461bcd60e51b8152602060048201526015602482015274125b9cdd59999a58da595b9d081048185b5bdd5b9d605a1b6044820152606490fd5b156111ba57565b60405162461bcd60e51b8152602060048201526015602482015274125b9cdd59999a58da595b9d081088185b5bdd5b9d605a1b6044820152606490fd5b91611203831515610f1a565b8115158061125d575b156112255782610a03610a0992611222956110ff565b90565b60405162461bcd60e51b815260206004820152601060248201526f496e76616c696420726573657276657360801b6044820152606490fd5b5080151561120c56fea26469706673582212207191ad8839e254635efea080b0c69d683d39d0d356be760dd5ed41edcb06e82e64736f6c63430008180033",
          "opcodes": "PUSH1 0x80 DUP1 PUSH1 0x40 MSTORE CALLVALUE PUSH2 0x16 JUMPI PUSH2 0x129C SWAP1 DUP2 PUSH2 0x1C DUP3 CODECOPY RETURN JUMPDEST PUSH1 0x0 DUP1 REVERT INVALID PUSH1 0x80 PUSH1 0x40 MSTORE PUSH1 0x4 CALLDATASIZE LT ISZERO PUSH2 0x12 JUMPI PUSH1 0x0 DUP1 REVERT JUMPDEST PUSH1 0x0 CALLDATALOAD PUSH1 0xE0 SHR DUP1 PUSH4 0x54D50D4 EQ PUSH2 0xE88 JUMPI DUP1 PUSH4 0x902F1AC EQ PUSH2 0xE63 JUMPI DUP1 PUSH4 0xFC63D10 EQ PUSH2 0xE3A JUMPI DUP1 PUSH4 0x18160DDD EQ PUSH2 0xE1C JUMPI DUP1 PUSH4 0x19E36F3B EQ PUSH2 0xDFE JUMPI DUP1 PUSH4 0x38ED1739 EQ PUSH2 0xAF9 JUMPI DUP1 PUSH4 0x485CC955 EQ PUSH2 0xA3A JUMPI DUP1 PUSH4 0x4AA06652 EQ PUSH2 0x948 JUMPI DUP1 PUSH4 0x5F64B55B EQ PUSH2 0x91F JUMPI DUP1 PUSH4 0x70A08231 EQ PUSH2 0x8E5 JUMPI DUP1 PUSH4 0xAC41865A EQ PUSH2 0x80D JUMPI DUP1 PUSH4 0xBAA2ABDE EQ PUSH2 0x53C JUMPI DUP1 PUSH4 0xDC5FA6C5 EQ PUSH2 0x51E JUMPI PUSH4 0xE8E33700 EQ PUSH2 0xB6 JUMPI PUSH1 0x0 DUP1 REVERT JUMPDEST CALLVALUE PUSH2 0x519 JUMPI PUSH2 0x100 CALLDATASIZE PUSH1 0x3 NOT ADD SLT PUSH2 0x519 JUMPI PUSH2 0xD0 PUSH2 0xEAC JUMP JUMPDEST PUSH2 0xD8 PUSH2 0xEC2 JUMP JUMPDEST PUSH1 0x44 CALLDATALOAD SWAP2 PUSH1 0x64 CALLDATALOAD SWAP1 PUSH1 0xC4 CALLDATALOAD PUSH1 0x1 PUSH1 0x1 PUSH1 0xA0 SHL SUB DUP2 AND DUP2 SUB PUSH2 0x519 JUMPI PUSH2 0x101 PUSH1 0xE4 CALLDATALOAD TIMESTAMP GT ISZERO PUSH2 0xED8 JUMP JUMPDEST PUSH2 0x115 PUSH1 0x1 PUSH1 0x1 PUSH1 0xA0 SHL SUB DUP3 AND ISZERO ISZERO PUSH2 0xF56 JUMP JUMPDEST PUSH1 0x0 SLOAD PUSH1 0x1 SLOAD PUSH1 0x2 SLOAD PUSH1 0x3 SLOAD PUSH1 0x4 SLOAD SWAP1 SWAP7 SWAP1 SWAP6 SWAP2 SWAP4 SWAP1 SWAP3 SWAP1 PUSH1 0x1 PUSH1 0x1 PUSH1 0xA0 SHL SUB DUP1 DUP3 AND SWAP1 DUP4 AND DUP2 PUSH2 0x4DB JUMPI POP POP PUSH1 0x1 PUSH1 0x1 PUSH1 0xA0 SHL SUB DUP10 DUP2 AND SWAP3 SWAP1 DUP5 AND PUSH2 0x15D DUP2 DUP6 EQ ISZERO PUSH2 0x1085 JUMP JUMPDEST DUP1 ISZERO ISZERO DUP1 PUSH2 0x4D2 JUMPI JUMPDEST PUSH2 0x16F SWAP1 PUSH2 0xF56 JUMP JUMPDEST PUSH1 0x1 PUSH1 0x1 PUSH1 0xA0 SHL SUB NOT SWAP3 DUP4 AND OR PUSH1 0x0 SSTORE AND OR PUSH1 0x1 SSTORE SWAP6 SWAP1 JUMPDEST PUSH1 0x2 SLOAD SWAP1 PUSH1 0x3 SLOAD DUP3 ISZERO DUP1 PUSH2 0x4CA JUMPI JUMPDEST ISZERO PUSH2 0x46D JUMPI POP SWAP1 POP SWAP7 SWAP6 JUMPDEST PUSH1 0x40 MLOAD PUSH4 0x23B872DD PUSH1 0xE0 SHL DUP2 MSTORE CALLER PUSH1 0x4 DUP3 ADD MSTORE ADDRESS PUSH1 0x24 DUP3 ADD MSTORE PUSH1 0x44 DUP2 ADD DUP9 SWAP1 MSTORE SWAP1 PUSH1 0x20 SWAP1 DUP3 SWAP1 PUSH1 0x64 SWAP1 DUP3 SWAP1 PUSH1 0x0 SWAP1 PUSH1 0x1 PUSH1 0x1 PUSH1 0xA0 SHL SUB AND GAS CALL DUP1 ISZERO PUSH2 0x442 JUMPI PUSH2 0x44E JUMPI JUMPDEST POP PUSH1 0x40 MLOAD PUSH4 0x23B872DD PUSH1 0xE0 SHL DUP2 MSTORE CALLER PUSH1 0x4 DUP3 ADD MSTORE ADDRESS PUSH1 0x24 DUP3 ADD MSTORE PUSH1 0x44 DUP2 ADD DUP9 SWAP1 MSTORE SWAP1 PUSH1 0x20 SWAP1 DUP3 SWAP1 PUSH1 0x64 SWAP1 DUP3 SWAP1 PUSH1 0x0 SWAP1 PUSH1 0x1 PUSH1 0x1 PUSH1 0xA0 SHL SUB AND GAS CALL DUP1 ISZERO PUSH2 0x442 JUMPI PUSH2 0x413 JUMPI JUMPDEST POP DUP3 PUSH2 0x3DB JUMPI PUSH2 0x23A DUP7 DUP7 PUSH2 0x10FF JUMP JUMPDEST PUSH1 0x0 PUSH1 0x3 DUP3 GT ISZERO PUSH2 0x3CD JUMPI POP DUP1 DUP1 PUSH1 0x1 SHR PUSH1 0x1 DUP2 ADD DUP1 SWAP2 GT PUSH2 0x398 JUMPI SWAP1 JUMPDEST DUP3 DUP3 LT PUSH2 0x3AE JUMPI POP POP JUMPDEST PUSH2 0x3E7 NOT DUP2 ADD SWAP1 DUP2 GT PUSH2 0x398 JUMPI PUSH1 0x0 DUP1 MSTORE PUSH1 0x5 PUSH1 0x20 MSTORE PUSH2 0x3E8 PUSH32 0x5B8CCBB9D4D8FB16EA74CE3C29A41F1B461FBDAFF4714A0D9A8EB05499746BC SSTORE SWAP3 JUMPDEST DUP4 ISZERO PUSH2 0x35A JUMPI PUSH2 0x356 SWAP5 PUSH2 0x2E7 DUP8 PUSH2 0x2EF SWAP5 PUSH2 0x2DF DUP9 DUP13 SWAP7 PUSH1 0x1 DUP1 PUSH1 0xA0 SHL SUB DUP11 AND PUSH1 0x0 MSTORE PUSH1 0x5 PUSH1 0x20 MSTORE PUSH1 0x40 PUSH1 0x0 KECCAK256 PUSH2 0x2D8 DUP4 DUP3 SLOAD PUSH2 0x106B JUMP JUMPDEST SWAP1 SSTORE PUSH2 0x106B JUMP JUMPDEST PUSH1 0x4 SSTORE PUSH2 0x106B JUMP JUMPDEST PUSH1 0x2 SSTORE PUSH2 0x106B JUMP JUMPDEST PUSH1 0x3 SSTORE PUSH1 0x40 DUP1 MLOAD DUP6 DUP2 MSTORE PUSH1 0x20 DUP2 ADD DUP8 SWAP1 MSTORE SWAP1 DUP2 ADD DUP4 SWAP1 MSTORE PUSH1 0x1 PUSH1 0x1 PUSH1 0xA0 SHL SUB SWAP2 SWAP1 SWAP2 AND SWAP1 PUSH32 0x64B83944E79C3CE8D4C297411DE637C3E102D064677AAC0C163976EBDCD6F50E SWAP1 PUSH1 0x60 SWAP1 LOG2 PUSH1 0x40 MLOAD SWAP4 DUP5 SWAP4 DUP5 PUSH1 0x40 SWAP2 SWAP5 SWAP4 SWAP3 PUSH1 0x60 DUP3 ADD SWAP6 DUP3 MSTORE PUSH1 0x20 DUP3 ADD MSTORE ADD MSTORE JUMP JUMPDEST SUB SWAP1 RETURN JUMPDEST PUSH1 0x40 MLOAD PUSH3 0x461BCD PUSH1 0xE5 SHL DUP2 MSTORE PUSH1 0x20 PUSH1 0x4 DUP3 ADD MSTORE PUSH1 0x16 PUSH1 0x24 DUP3 ADD MSTORE PUSH22 0x496E73756666696369656E74206C6971756964697479 PUSH1 0x50 SHL PUSH1 0x44 DUP3 ADD MSTORE PUSH1 0x64 SWAP1 REVERT JUMPDEST PUSH4 0x4E487B71 PUSH1 0xE0 SHL PUSH1 0x0 MSTORE PUSH1 0x11 PUSH1 0x4 MSTORE PUSH1 0x24 PUSH1 0x0 REVERT JUMPDEST SWAP1 SWAP2 POP PUSH2 0x3C4 DUP3 PUSH2 0x3BF DUP2 DUP5 PUSH2 0x1112 JUMP JUMPDEST PUSH2 0x106B JUMP JUMPDEST PUSH1 0x1 SHR SWAP1 PUSH2 0x258 JUMP JUMPDEST SWAP1 ISZERO PUSH2 0x262 JUMPI POP PUSH1 0x1 PUSH2 0x262 JUMP JUMPDEST PUSH2 0x3EE DUP2 PUSH2 0x3E9 DUP6 DUP9 PUSH2 0x10FF JUMP JUMPDEST PUSH2 0x1112 JUMP JUMPDEST PUSH2 0x3FC DUP6 PUSH2 0x3E9 DUP7 DUP11 PUSH2 0x10FF JUMP JUMPDEST DUP1 DUP3 LT ISZERO PUSH2 0x40C JUMPI POP JUMPDEST SWAP3 PUSH2 0x29F JUMP JUMPDEST SWAP1 POP PUSH2 0x406 JUMP JUMPDEST PUSH2 0x434 SWAP1 PUSH1 0x20 RETURNDATASIZE PUSH1 0x20 GT PUSH2 0x43B JUMPI JUMPDEST PUSH2 0x42C DUP2 DUP4 PUSH2 0x101B JUMP JUMPDEST DUP2 ADD SWAP1 PUSH2 0x1053 JUMP JUMPDEST POP CODESIZE PUSH2 0x22A JUMP JUMPDEST POP RETURNDATASIZE PUSH2 0x422 JUMP JUMPDEST PUSH1 0x40 MLOAD RETURNDATASIZE PUSH1 0x0 DUP3 RETURNDATACOPY RETURNDATASIZE SWAP1 REVERT JUMPDEST PUSH2 0x466 SWAP1 PUSH1 0x20 RETURNDATASIZE PUSH1 0x20 GT PUSH2 0x43B JUMPI PUSH2 0x42C DUP2 DUP4 PUSH2 0x101B JUMP JUMPDEST POP CODESIZE PUSH2 0x1E5 JUMP JUMPDEST PUSH2 0x47B DUP4 PUSH2 0x3E9 DUP4 DUP14 PUSH2 0x10FF JUMP JUMPDEST SWAP3 DUP3 DUP5 GT PUSH2 0x49B JUMPI POP POP POP PUSH2 0x494 PUSH1 0xA4 CALLDATALOAD DUP3 LT ISZERO PUSH2 0x11B3 JUMP JUMPDEST SWAP7 SWAP6 PUSH2 0x1A1 JUMP JUMPDEST DUP3 SWAP4 POP PUSH2 0x3E9 SWAP1 PUSH2 0x4AB SWAP4 PUSH2 0x10FF JUMP JUMPDEST SWAP8 DUP9 GT ISZERO DUP1 PUSH2 0x4BE JUMPI JUMPDEST PUSH2 0x494 SWAP1 PUSH2 0x116F JUMP JUMPDEST POP PUSH1 0x84 CALLDATALOAD DUP9 LT ISZERO PUSH2 0x4B5 JUMP JUMPDEST POP DUP1 ISZERO PUSH2 0x196 JUMP JUMPDEST POP DUP4 ISZERO ISZERO PUSH2 0x166 JUMP JUMPDEST SWAP1 SWAP10 SWAP1 SWAP5 SWAP4 PUSH2 0x501 SWAP4 POP PUSH1 0x1 PUSH1 0x1 PUSH1 0xA0 SHL SUB AND DUP11 EQ SWAP2 POP DUP5 SWAP1 DUP3 PUSH2 0x506 JUMPI JUMPDEST POP POP PUSH2 0x1132 JUMP JUMPDEST PUSH2 0x187 JUMP JUMPDEST PUSH1 0x1 PUSH1 0x1 PUSH1 0xA0 SHL SUB AND EQ SWAP1 POP DUP4 CODESIZE PUSH2 0x4FA JUMP JUMPDEST PUSH1 0x0 DUP1 REVERT JUMPDEST CALLVALUE PUSH2 0x519 JUMPI PUSH1 0x0 CALLDATASIZE PUSH1 0x3 NOT ADD SLT PUSH2 0x519 JUMPI PUSH1 0x20 PUSH1 0x2 SLOAD PUSH1 0x40 MLOAD SWAP1 DUP2 MSTORE RETURN JUMPDEST CALLVALUE PUSH2 0x519 JUMPI PUSH1 0xE0 CALLDATASIZE PUSH1 0x3 NOT ADD SLT PUSH2 0x519 JUMPI PUSH2 0x555 PUSH2 0xEAC JUMP JUMPDEST PUSH2 0x55D PUSH2 0xEC2 JUMP JUMPDEST SWAP1 PUSH1 0xA4 CALLDATALOAD PUSH1 0x1 PUSH1 0x1 PUSH1 0xA0 SHL SUB DUP2 AND SWAP1 SUB PUSH2 0x519 JUMPI PUSH2 0x57F PUSH1 0xC4 CALLDATALOAD TIMESTAMP GT ISZERO PUSH2 0xED8 JUMP JUMPDEST PUSH1 0x44 CALLDATALOAD ISZERO PUSH2 0x7D7 JUMPI PUSH2 0x59D PUSH1 0xA4 CALLDATALOAD PUSH1 0x1 PUSH1 0x1 PUSH1 0xA0 SHL SUB AND ISZERO ISZERO PUSH2 0xF56 JUMP JUMPDEST PUSH1 0x0 DUP1 SLOAD PUSH1 0x1 SLOAD PUSH1 0x2 SLOAD PUSH1 0x3 SLOAD PUSH1 0x4 SLOAD CALLER DUP7 MSTORE PUSH1 0x5 PUSH1 0x20 MSTORE PUSH1 0x40 SWAP1 SWAP6 KECCAK256 SLOAD PUSH1 0x1 PUSH1 0x1 PUSH1 0xA0 SHL SUB SWAP4 DUP5 AND SWAP8 SWAP2 SWAP7 SWAP3 SWAP6 SWAP5 DUP5 AND SWAP5 SWAP4 SWAP1 SWAP3 PUSH2 0x5E9 SWAP3 SWAP2 AND DUP6 EQ SWAP1 DUP9 SWAP1 DUP3 PUSH2 0x7C4 JUMPI POP POP PUSH2 0x1132 JUMP JUMPDEST PUSH1 0x44 CALLDATALOAD DUP2 LT PUSH2 0x788 JUMPI PUSH2 0x664 SWAP5 PUSH2 0x66C DUP4 DUP7 PUSH2 0x611 PUSH2 0x674 SWAP7 PUSH2 0x3E9 PUSH2 0x64C SWAP11 PUSH1 0x44 CALLDATALOAD PUSH2 0x10FF JUMP JUMPDEST SWAP9 DUP3 PUSH2 0x624 DUP12 SWAP5 PUSH2 0x3E9 DUP9 PUSH1 0x44 CALLDATALOAD PUSH2 0x10FF JUMP JUMPDEST SWAP10 DUP11 SWAP8 PUSH2 0x635 PUSH1 0x64 CALLDATALOAD DUP8 LT ISZERO PUSH2 0x116F JUMP JUMPDEST PUSH2 0x643 PUSH1 0x84 CALLDATALOAD DUP11 LT ISZERO PUSH2 0x11B3 JUMP JUMPDEST PUSH1 0x44 CALLDATALOAD SWAP1 PUSH2 0x1078 JUMP JUMPDEST CALLER PUSH1 0x0 MSTORE PUSH1 0x5 PUSH1 0x20 MSTORE PUSH1 0x40 PUSH1 0x0 KECCAK256 SSTORE PUSH1 0x44 CALLDATALOAD SWAP1 PUSH2 0x1078 JUMP JUMPDEST PUSH1 0x4 SSTORE PUSH2 0x1078 JUMP JUMPDEST PUSH1 0x2 SSTORE PUSH2 0x1078 JUMP JUMPDEST PUSH1 0x3 SSTORE PUSH1 0x40 MLOAD PUSH4 0xA9059CBB PUSH1 0xE0 SHL DUP1 DUP3 MSTORE PUSH1 0xA4 CALLDATALOAD PUSH1 0x1 PUSH1 0x1 PUSH1 0xA0 SHL SUB AND PUSH1 0x4 DUP4 ADD MSTORE PUSH1 0x24 DUP3 ADD DUP6 SWAP1 MSTORE SWAP1 SWAP2 PUSH1 0x20 SWAP1 DUP4 SWAP1 PUSH1 0x44 SWAP1 DUP3 SWAP1 PUSH1 0x0 SWAP1 GAS CALL SWAP2 DUP3 ISZERO PUSH2 0x442 JUMPI PUSH1 0x20 SWAP3 PUSH2 0x76B JUMPI JUMPDEST POP PUSH1 0x40 MLOAD SWAP1 DUP2 MSTORE PUSH1 0xA4 CALLDATALOAD PUSH1 0x1 PUSH1 0x1 PUSH1 0xA0 SHL SUB AND PUSH1 0x4 DUP3 ADD MSTORE PUSH1 0x24 DUP2 ADD DUP4 SWAP1 MSTORE SWAP4 DUP5 SWAP1 PUSH1 0x44 SWAP1 DUP3 SWAP1 PUSH1 0x0 SWAP1 GAS CALL SWAP3 DUP4 ISZERO PUSH2 0x442 JUMPI PUSH1 0x40 SWAP4 PUSH2 0x74C JUMPI JUMPDEST POP DUP3 MLOAD DUP3 DUP2 MSTORE PUSH1 0x20 DUP2 ADD DUP3 SWAP1 MSTORE PUSH1 0x44 CALLDATALOAD PUSH1 0x40 DUP3 ADD MSTORE PUSH1 0x1 PUSH1 0x1 PUSH1 0xA0 SHL SUB PUSH1 0xA4 CALLDATALOAD AND SWAP1 PUSH32 0x1DC8BB69DF2B8E91FBDCBFCF93D951B3F0000F085A95FE3F7946D6161439245D SWAP1 PUSH1 0x60 SWAP1 LOG2 DUP3 MLOAD SWAP2 DUP3 MSTORE PUSH1 0x20 DUP3 ADD MSTORE RETURN JUMPDEST PUSH2 0x764 SWAP1 PUSH1 0x20 RETURNDATASIZE PUSH1 0x20 GT PUSH2 0x43B JUMPI PUSH2 0x42C DUP2 DUP4 PUSH2 0x101B JUMP JUMPDEST POP DUP4 PUSH2 0x6F8 JUMP JUMPDEST PUSH2 0x781 SWAP1 DUP4 RETURNDATASIZE DUP6 GT PUSH2 0x43B JUMPI PUSH2 0x42C DUP2 DUP4 PUSH2 0x101B JUMP JUMPDEST POP DUP6 PUSH2 0x6BD JUMP JUMPDEST PUSH1 0x40 MLOAD PUSH3 0x461BCD PUSH1 0xE5 SHL DUP2 MSTORE PUSH1 0x20 PUSH1 0x4 DUP3 ADD MSTORE PUSH1 0x14 PUSH1 0x24 DUP3 ADD MSTORE PUSH20 0x496E73756666696369656E742062616C616E6365 PUSH1 0x60 SHL PUSH1 0x44 DUP3 ADD MSTORE PUSH1 0x64 SWAP1 REVERT JUMPDEST PUSH1 0x1 PUSH1 0x1 PUSH1 0xA0 SHL SUB AND EQ SWAP1 POP DUP8 DUP10 PUSH2 0x4FA JUMP JUMPDEST PUSH1 0x40 MLOAD PUSH3 0x461BCD PUSH1 0xE5 SHL DUP2 MSTORE PUSH1 0x20 PUSH1 0x4 DUP3 ADD MSTORE PUSH1 0xE PUSH1 0x24 DUP3 ADD MSTORE PUSH14 0x125B9D985B1A5908185B5BDD5B9D PUSH1 0x92 SHL PUSH1 0x44 DUP3 ADD MSTORE PUSH1 0x64 SWAP1 REVERT JUMPDEST CALLVALUE PUSH2 0x519 JUMPI PUSH1 0x40 CALLDATASIZE PUSH1 0x3 NOT ADD SLT PUSH2 0x519 JUMPI PUSH2 0x826 PUSH2 0xEAC JUMP JUMPDEST PUSH2 0x82E PUSH2 0xEC2 JUMP JUMPDEST PUSH1 0x1 DUP1 PUSH1 0xA0 SHL SUB PUSH2 0x860 DUP2 PUSH1 0x0 SLOAD AND SWAP3 DUP3 PUSH1 0x1 SLOAD AND PUSH1 0x2 SLOAD SWAP5 DUP5 PUSH1 0x3 SLOAD SWAP8 AND EQ SWAP4 DUP5 SWAP3 DUP4 SWAP6 PUSH2 0x8D9 JUMPI JUMPDEST POP POP POP PUSH2 0x1132 JUMP JUMPDEST DUP2 ISZERO SWAP1 DUP2 ISZERO DUP1 PUSH2 0x8D0 JUMPI JUMPDEST PUSH2 0x874 SWAP1 PUSH2 0x10C4 JUMP JUMPDEST ISZERO PUSH2 0x8A9 JUMPI POP SWAP1 PUSH8 0xDE0B6B3A7640000 SWAP1 DUP2 DUP2 MUL SWAP2 DUP2 DUP4 DIV EQ SWAP1 ISZERO OR ISZERO PUSH2 0x398 JUMPI PUSH1 0x20 SWAP2 PUSH2 0x8A1 SWAP2 PUSH2 0x1112 JUMP JUMPDEST PUSH1 0x40 MLOAD SWAP1 DUP2 MSTORE RETURN JUMPDEST PUSH8 0xDE0B6B3A7640000 DUP1 DUP4 MUL SWAP3 DUP4 DIV EQ OR ISZERO PUSH2 0x398 JUMPI PUSH1 0x20 SWAP2 PUSH2 0x8CB SWAP2 PUSH2 0x1112 JUMP JUMPDEST PUSH2 0x8A1 JUMP JUMPDEST POP DUP4 ISZERO ISZERO PUSH2 0x86B JUMP JUMPDEST AND EQ SWAP1 POP DUP6 DUP1 DUP1 PUSH2 0x858 JUMP JUMPDEST CALLVALUE PUSH2 0x519 JUMPI PUSH1 0x20 CALLDATASIZE PUSH1 0x3 NOT ADD SLT PUSH2 0x519 JUMPI PUSH1 0x1 PUSH1 0x1 PUSH1 0xA0 SHL SUB PUSH2 0x906 PUSH2 0xEAC JUMP JUMPDEST AND PUSH1 0x0 MSTORE PUSH1 0x5 PUSH1 0x20 MSTORE PUSH1 0x20 PUSH1 0x40 PUSH1 0x0 KECCAK256 SLOAD PUSH1 0x40 MLOAD SWAP1 DUP2 MSTORE RETURN JUMPDEST CALLVALUE PUSH2 0x519 JUMPI PUSH1 0x0 CALLDATASIZE PUSH1 0x3 NOT ADD SLT PUSH2 0x519 JUMPI PUSH1 0x1 SLOAD PUSH1 0x40 MLOAD PUSH1 0x1 PUSH1 0x1 PUSH1 0xA0 SHL SUB SWAP1 SWAP2 AND DUP2 MSTORE PUSH1 0x20 SWAP1 RETURN JUMPDEST CALLVALUE PUSH2 0x519 JUMPI PUSH1 0x60 CALLDATASIZE PUSH1 0x3 NOT ADD SLT PUSH2 0x519 JUMPI PUSH1 0x20 PUSH2 0x8A1 PUSH2 0x966 PUSH2 0xEAC JUMP JUMPDEST PUSH2 0xA09 PUSH2 0x971 PUSH2 0xEC2 JUMP JUMPDEST PUSH2 0xA03 PUSH1 0x44 CALLDATALOAD SWAP2 PUSH2 0x983 DUP4 ISZERO ISZERO PUSH2 0xF1A JUMP JUMPDEST PUSH1 0x1 PUSH1 0x1 PUSH1 0xA0 SHL SUB SWAP5 DUP6 AND SWAP5 SWAP1 DUP2 AND PUSH2 0x99E DUP7 DUP3 EQ ISZERO PUSH2 0xFE1 JUMP JUMPDEST PUSH2 0x9DB DUP3 PUSH1 0x0 SLOAD AND SWAP3 PUSH1 0x1 SLOAD AND SWAP2 PUSH1 0x2 SLOAD SWAP3 PUSH1 0x3 SLOAD SWAP5 PUSH2 0x9CB DUP2 DUP12 EQ DUP4 DUP2 SWAP13 DUP3 ISZERO PUSH2 0xA30 JUMPI JUMPDEST POP POP PUSH2 0xFA5 JUMP JUMPDEST DUP3 EQ SWAP2 DUP3 ISZERO PUSH2 0xA26 JUMPI POP POP PUSH2 0xFA5 JUMP JUMPDEST DUP1 ISZERO ISZERO DUP1 PUSH2 0xA1D JUMPI JUMPDEST PUSH2 0x9ED SWAP1 PUSH2 0x10C4 JUMP JUMPDEST DUP6 ISZERO PUSH2 0xA16 JUMPI DUP1 SWAP6 JUMPDEST ISZERO PUSH2 0xA0F JUMPI POP JUMPDEST DUP3 PUSH2 0x10FF JUMP JUMPDEST SWAP3 PUSH2 0x106B JUMP JUMPDEST SWAP1 PUSH2 0x1112 JUMP JUMPDEST SWAP1 POP PUSH2 0x9FD JUMP JUMPDEST DUP2 SWAP6 PUSH2 0x9F6 JUMP JUMPDEST POP DUP2 ISZERO ISZERO PUSH2 0x9E4 JUMP JUMPDEST EQ SWAP1 POP DUP11 DUP1 PUSH2 0x9C4 JUMP JUMPDEST EQ SWAP1 POP DUP4 DUP16 PUSH2 0x9C4 JUMP JUMPDEST CALLVALUE PUSH2 0x519 JUMPI PUSH1 0x40 CALLDATASIZE PUSH1 0x3 NOT ADD SLT PUSH2 0x519 JUMPI PUSH2 0xA53 PUSH2 0xEAC JUMP JUMPDEST PUSH2 0xA5B PUSH2 0xEC2 JUMP JUMPDEST PUSH1 0x0 SLOAD SWAP1 PUSH1 0x1 PUSH1 0x1 PUSH1 0xA0 SHL SUB SWAP1 DUP2 DUP4 AND PUSH2 0xABE JUMPI DUP2 AND SWAP3 AND PUSH2 0xA7F DUP4 DUP3 EQ ISZERO PUSH2 0x1085 JUMP JUMPDEST DUP1 ISZERO ISZERO DUP1 PUSH2 0xAB5 JUMPI JUMPDEST PUSH2 0xA91 SWAP1 PUSH2 0xF56 JUMP JUMPDEST PUSH12 0xFFFFFFFFFFFFFFFFFFFFFFFF PUSH1 0xA0 SHL DUP1 SWAP3 AND OR PUSH1 0x0 SSTORE PUSH1 0x1 SLOAD AND OR PUSH1 0x1 SSTORE PUSH1 0x0 DUP1 RETURN JUMPDEST POP DUP3 ISZERO ISZERO PUSH2 0xA88 JUMP JUMPDEST PUSH1 0x40 MLOAD PUSH3 0x461BCD PUSH1 0xE5 SHL DUP2 MSTORE PUSH1 0x20 PUSH1 0x4 DUP3 ADD MSTORE PUSH1 0x13 PUSH1 0x24 DUP3 ADD MSTORE PUSH19 0x105B1C9958591E481A5B9A5D1A585B1A5E9959 PUSH1 0x6A SHL PUSH1 0x44 DUP3 ADD MSTORE PUSH1 0x64 SWAP1 REVERT JUMPDEST CALLVALUE PUSH2 0x519 JUMPI PUSH1 0xA0 CALLDATASIZE PUSH1 0x3 NOT ADD SLT PUSH2 0x519 JUMPI PUSH8 0xFFFFFFFFFFFFFFFF PUSH1 0x24 PUSH1 0x4 CALLDATALOAD PUSH1 0x44 CALLDATALOAD DUP4 DUP2 GT PUSH2 0x519 JUMPI CALLDATASIZE PUSH1 0x23 DUP3 ADD SLT ISZERO PUSH2 0x519 JUMPI DUP1 PUSH1 0x4 ADD CALLDATALOAD SWAP4 DUP5 GT PUSH2 0x519 JUMPI CALLDATASIZE DUP4 DUP6 PUSH1 0x5 SHL DUP4 ADD ADD GT PUSH2 0x519 JUMPI PUSH1 0x1 PUSH1 0x1 PUSH1 0xA0 SHL SUB SWAP4 PUSH1 0x64 CALLDATALOAD SWAP1 DUP6 DUP3 AND DUP1 DUP4 SUB PUSH2 0x519 JUMPI PUSH2 0xB6C PUSH1 0x84 CALLDATALOAD TIMESTAMP GT ISZERO PUSH2 0xED8 JUMP JUMPDEST PUSH2 0xB77 DUP6 ISZERO ISZERO PUSH2 0xF1A JUMP JUMPDEST PUSH1 0x2 DUP3 SUB PUSH2 0xDCB JUMPI PUSH2 0xB8A SWAP1 ISZERO ISZERO PUSH2 0xF56 JUMP JUMPDEST DUP6 PUSH1 0x0 SLOAD AND SWAP3 DUP7 PUSH1 0x1 SLOAD AND PUSH1 0x2 SLOAD SWAP1 PUSH1 0x3 SLOAD SWAP3 DUP5 ISZERO PUSH2 0xDB6 JUMPI PUSH2 0xBAE DUP10 DUP3 ADD PUSH2 0xF91 JUMP JUMPDEST SWAP5 PUSH1 0x1 LT ISZERO PUSH2 0xDB6 JUMPI SWAP1 DUP10 PUSH2 0xBC8 PUSH1 0x44 PUSH2 0xBF2 SWAP5 ADD PUSH2 0xF91 JUMP JUMPDEST SWAP6 AND SWAP10 DUP8 DUP12 EQ SWAP6 DUP7 DUP1 ISZERO PUSH2 0xDAD JUMPI JUMPDEST PUSH2 0xBE0 SWAP1 PUSH2 0xFA5 JUMP JUMPDEST AND SWAP7 DUP8 EQ SWAP1 DUP2 ISZERO PUSH2 0xDA3 JUMPI JUMPDEST POP PUSH2 0xFA5 JUMP JUMPDEST PUSH2 0xBFE DUP6 DUP10 EQ ISZERO PUSH2 0xFE1 JUMP JUMPDEST DUP3 ISZERO PUSH2 0xD9A JUMPI PUSH2 0xC18 DUP2 JUMPDEST DUP5 ISZERO PUSH2 0xD93 JUMPI DUP4 SWAP1 JUMPDEST DUP9 PUSH2 0x11F7 JUMP JUMPDEST SWAP7 DUP1 CALLDATALOAD DUP9 LT PUSH2 0xD59 JUMPI POP PUSH1 0x40 MLOAD PUSH4 0x23B872DD PUSH1 0xE0 SHL DUP2 MSTORE CALLER PUSH1 0x4 DUP3 ADD MSTORE ADDRESS PUSH1 0x24 DUP3 ADD MSTORE PUSH1 0x44 DUP2 ADD DUP8 SWAP1 MSTORE PUSH1 0x20 SWAP5 SWAP4 SWAP3 SWAP2 SWAP1 DUP6 DUP2 PUSH1 0x64 DUP2 PUSH1 0x0 DUP15 GAS CALL DUP1 ISZERO PUSH2 0x442 JUMPI PUSH2 0xC98 SWAP6 DUP8 SWAP3 DUP12 SWAP3 PUSH2 0xD3C JUMPI JUMPDEST POP PUSH1 0x40 MLOAD PUSH4 0xA9059CBB PUSH1 0xE0 SHL DUP2 MSTORE PUSH1 0x1 PUSH1 0x1 PUSH1 0xA0 SHL SUB SWAP1 SWAP2 AND PUSH1 0x4 DUP3 ADD MSTORE PUSH1 0x24 DUP2 ADD SWAP2 SWAP1 SWAP2 MSTORE SWAP5 DUP6 SWAP1 DUP2 SWAP1 PUSH1 0x44 DUP3 ADD SWAP1 JUMP JUMPDEST SUB DUP2 PUSH1 0x0 DUP11 GAS CALL SWAP3 DUP4 ISZERO PUSH2 0x442 JUMPI DUP8 SWAP5 DUP10 SWAP5 PUSH2 0xD1F JUMPI JUMPDEST POP ISZERO PUSH2 0xD01 JUMPI PUSH2 0xCC2 SWAP4 PUSH2 0x66C SWAP2 PUSH2 0x106B JUMP JUMPDEST PUSH1 0x3 SSTORE JUMPDEST PUSH1 0x40 MLOAD SWAP5 DUP6 MSTORE DUP5 ADD MSTORE PUSH1 0x40 DUP4 ADD MSTORE PUSH1 0x60 DUP3 ADD MSTORE PUSH32 0xCD3829A3813DC3CDD188FD3D01DCF3268C16BE2FDD2DD21D0665418816E46062 PUSH1 0x80 CALLER SWAP3 LOG2 STOP JUMPDEST SWAP1 PUSH2 0xD17 SWAP4 PUSH2 0xD0F SWAP2 PUSH2 0x106B JUMP JUMPDEST PUSH1 0x3 SSTORE PUSH2 0x1078 JUMP JUMPDEST PUSH1 0x2 SSTORE PUSH2 0xCC6 JUMP JUMPDEST PUSH2 0xD35 SWAP1 DUP8 RETURNDATASIZE DUP10 GT PUSH2 0x43B JUMPI PUSH2 0x42C DUP2 DUP4 PUSH2 0x101B JUMP JUMPDEST POP DUP11 PUSH2 0xCAF JUMP JUMPDEST PUSH2 0xD52 SWAP1 DUP5 RETURNDATASIZE DUP7 GT PUSH2 0x43B JUMPI PUSH2 0x42C DUP2 DUP4 PUSH2 0x101B JUMP JUMPDEST POP DUP13 PUSH2 0xC66 JUMP JUMPDEST PUSH1 0x64 SWAP1 PUSH1 0x13 PUSH1 0x40 MLOAD SWAP2 PUSH3 0x461BCD PUSH1 0xE5 SHL DUP4 MSTORE PUSH1 0x20 PUSH1 0x4 DUP5 ADD MSTORE DUP3 ADD MSTORE PUSH19 0x125B9CDD59999A58DA595B9D081BDD5D1C1D5D PUSH1 0x6A SHL PUSH1 0x44 DUP3 ADD MSTORE REVERT JUMPDEST DUP3 SWAP1 PUSH2 0xC12 JUMP JUMPDEST PUSH2 0xC18 DUP3 PUSH2 0xC09 JUMP JUMPDEST SWAP1 POP DUP7 EQ DUP11 PUSH2 0xBEC JUMP JUMPDEST POP DUP12 DUP4 EQ PUSH2 0xBD7 JUMP JUMPDEST DUP9 PUSH4 0x4E487B71 PUSH1 0xE0 SHL PUSH1 0x0 MSTORE PUSH1 0x32 PUSH1 0x4 MSTORE PUSH1 0x0 REVERT JUMPDEST PUSH1 0x40 MLOAD PUSH3 0x461BCD PUSH1 0xE5 SHL DUP2 MSTORE PUSH1 0x20 PUSH1 0x4 DUP3 ADD MSTORE PUSH1 0xC DUP2 DUP9 ADD MSTORE PUSH12 0x92DCECC2D8D2C840E0C2E8D PUSH1 0xA3 SHL PUSH1 0x44 DUP3 ADD MSTORE PUSH1 0x64 SWAP1 REVERT JUMPDEST CALLVALUE PUSH2 0x519 JUMPI PUSH1 0x0 CALLDATASIZE PUSH1 0x3 NOT ADD SLT PUSH2 0x519 JUMPI PUSH1 0x20 PUSH1 0x3 SLOAD PUSH1 0x40 MLOAD SWAP1 DUP2 MSTORE RETURN JUMPDEST CALLVALUE PUSH2 0x519 JUMPI PUSH1 0x0 CALLDATASIZE PUSH1 0x3 NOT ADD SLT PUSH2 0x519 JUMPI PUSH1 0x20 PUSH1 0x4 SLOAD PUSH1 0x40 MLOAD SWAP1 DUP2 MSTORE RETURN JUMPDEST CALLVALUE PUSH2 0x519 JUMPI PUSH1 0x0 CALLDATASIZE PUSH1 0x3 NOT ADD SLT PUSH2 0x519 JUMPI PUSH1 0x0 SLOAD PUSH1 0x40 MLOAD PUSH1 0x1 PUSH1 0x1 PUSH1 0xA0 SHL SUB SWAP1 SWAP2 AND DUP2 MSTORE PUSH1 0x20 SWAP1 RETURN JUMPDEST CALLVALUE PUSH2 0x519 JUMPI PUSH1 0x0 CALLDATASIZE PUSH1 0x3 NOT ADD SLT PUSH2 0x519 JUMPI PUSH1 0x40 PUSH1 0x2 SLOAD PUSH1 0x3 SLOAD DUP3 MLOAD SWAP2 DUP3 MSTORE PUSH1 0x20 DUP3 ADD MSTORE RETURN JUMPDEST CALLVALUE PUSH2 0x519 JUMPI PUSH1 0x60 CALLDATASIZE PUSH1 0x3 NOT ADD SLT PUSH2 0x519 JUMPI PUSH1 0x20 PUSH2 0x8A1 PUSH1 0x44 CALLDATALOAD PUSH1 0x24 CALLDATALOAD PUSH1 0x4 CALLDATALOAD PUSH2 0x11F7 JUMP JUMPDEST PUSH1 0x4 CALLDATALOAD SWAP1 PUSH1 0x1 PUSH1 0x1 PUSH1 0xA0 SHL SUB DUP3 AND DUP3 SUB PUSH2 0x519 JUMPI JUMP JUMPDEST PUSH1 0x24 CALLDATALOAD SWAP1 PUSH1 0x1 PUSH1 0x1 PUSH1 0xA0 SHL SUB DUP3 AND DUP3 SUB PUSH2 0x519 JUMPI JUMP JUMPDEST ISZERO PUSH2 0xEDF JUMPI JUMP JUMPDEST PUSH1 0x40 MLOAD PUSH3 0x461BCD PUSH1 0xE5 SHL DUP2 MSTORE PUSH1 0x20 PUSH1 0x4 DUP3 ADD MSTORE PUSH1 0x13 PUSH1 0x24 DUP3 ADD MSTORE PUSH19 0x151C985B9CD858DD1A5BDB88195E1C1A5C9959 PUSH1 0x6A SHL PUSH1 0x44 DUP3 ADD MSTORE PUSH1 0x64 SWAP1 REVERT JUMPDEST ISZERO PUSH2 0xF21 JUMPI JUMP JUMPDEST PUSH1 0x40 MLOAD PUSH3 0x461BCD PUSH1 0xE5 SHL DUP2 MSTORE PUSH1 0x20 PUSH1 0x4 DUP3 ADD MSTORE PUSH1 0xD PUSH1 0x24 DUP3 ADD MSTORE PUSH13 0x125B9D985B1A59081A5B9C1D5D PUSH1 0x9A SHL PUSH1 0x44 DUP3 ADD MSTORE PUSH1 0x64 SWAP1 REVERT JUMPDEST ISZERO PUSH2 0xF5D JUMPI JUMP JUMPDEST PUSH1 0x40 MLOAD PUSH3 0x461BCD PUSH1 0xE5 SHL DUP2 MSTORE PUSH1 0x20 PUSH1 0x4 DUP3 ADD MSTORE PUSH1 0xC PUSH1 0x24 DUP3 ADD MSTORE PUSH12 0x5A65726F2061646472657373 PUSH1 0xA0 SHL PUSH1 0x44 DUP3 ADD MSTORE PUSH1 0x64 SWAP1 REVERT JUMPDEST CALLDATALOAD PUSH1 0x1 PUSH1 0x1 PUSH1 0xA0 SHL SUB DUP2 AND DUP2 SUB PUSH2 0x519 JUMPI SWAP1 JUMP JUMPDEST ISZERO PUSH2 0xFAC JUMPI JUMP JUMPDEST PUSH1 0x40 MLOAD PUSH3 0x461BCD PUSH1 0xE5 SHL DUP2 MSTORE PUSH1 0x20 PUSH1 0x4 DUP3 ADD MSTORE PUSH1 0xD PUSH1 0x24 DUP3 ADD MSTORE PUSH13 0x24B73B30B634B2103A37B5B2B7 PUSH1 0x99 SHL PUSH1 0x44 DUP3 ADD MSTORE PUSH1 0x64 SWAP1 REVERT JUMPDEST ISZERO PUSH2 0xFE8 JUMPI JUMP JUMPDEST PUSH1 0x40 MLOAD PUSH3 0x461BCD PUSH1 0xE5 SHL DUP2 MSTORE PUSH1 0x20 PUSH1 0x4 DUP3 ADD MSTORE PUSH1 0xB PUSH1 0x24 DUP3 ADD MSTORE PUSH11 0x53616D6520746F6B656E73 PUSH1 0xA8 SHL PUSH1 0x44 DUP3 ADD MSTORE PUSH1 0x64 SWAP1 REVERT JUMPDEST SWAP1 PUSH1 0x1F DUP1 NOT SWAP2 ADD AND DUP2 ADD SWAP1 DUP2 LT PUSH8 0xFFFFFFFFFFFFFFFF DUP3 GT OR PUSH2 0x103D JUMPI PUSH1 0x40 MSTORE JUMP JUMPDEST PUSH4 0x4E487B71 PUSH1 0xE0 SHL PUSH1 0x0 MSTORE PUSH1 0x41 PUSH1 0x4 MSTORE PUSH1 0x24 PUSH1 0x0 REVERT JUMPDEST SWAP1 DUP2 PUSH1 0x20 SWAP2 SUB SLT PUSH2 0x519 JUMPI MLOAD DUP1 ISZERO ISZERO DUP2 SUB PUSH2 0x519 JUMPI SWAP1 JUMP JUMPDEST SWAP2 SWAP1 DUP3 ADD DUP1 SWAP3 GT PUSH2 0x398 JUMPI JUMP JUMPDEST SWAP2 SWAP1 DUP3 SUB SWAP2 DUP3 GT PUSH2 0x398 JUMPI JUMP JUMPDEST ISZERO PUSH2 0x108C JUMPI JUMP JUMPDEST PUSH1 0x40 MLOAD PUSH3 0x461BCD PUSH1 0xE5 SHL DUP2 MSTORE PUSH1 0x20 PUSH1 0x4 DUP3 ADD MSTORE PUSH1 0x10 PUSH1 0x24 DUP3 ADD MSTORE PUSH16 0x4964656E746963616C20746F6B656E73 PUSH1 0x80 SHL PUSH1 0x44 DUP3 ADD MSTORE PUSH1 0x64 SWAP1 REVERT JUMPDEST ISZERO PUSH2 0x10CB JUMPI JUMP JUMPDEST PUSH1 0x40 MLOAD PUSH3 0x461BCD PUSH1 0xE5 SHL DUP2 MSTORE PUSH1 0x20 PUSH1 0x4 DUP3 ADD MSTORE PUSH1 0xC PUSH1 0x24 DUP3 ADD MSTORE PUSH12 0x4E6F206C6971756964697479 PUSH1 0xA0 SHL PUSH1 0x44 DUP3 ADD MSTORE PUSH1 0x64 SWAP1 REVERT JUMPDEST DUP2 DUP2 MUL SWAP3 SWAP2 DUP2 ISZERO SWAP2 DUP5 DIV EQ OR ISZERO PUSH2 0x398 JUMPI JUMP JUMPDEST DUP2 ISZERO PUSH2 0x111C JUMPI DIV SWAP1 JUMP JUMPDEST PUSH4 0x4E487B71 PUSH1 0xE0 SHL PUSH1 0x0 MSTORE PUSH1 0x12 PUSH1 0x4 MSTORE PUSH1 0x24 PUSH1 0x0 REVERT JUMPDEST ISZERO PUSH2 0x1139 JUMPI JUMP JUMPDEST PUSH1 0x40 MLOAD PUSH3 0x461BCD PUSH1 0xE5 SHL DUP2 MSTORE PUSH1 0x20 PUSH1 0x4 DUP3 ADD MSTORE PUSH1 0xE PUSH1 0x24 DUP3 ADD MSTORE PUSH14 0x496E76616C696420746F6B656E73 PUSH1 0x90 SHL PUSH1 0x44 DUP3 ADD MSTORE PUSH1 0x64 SWAP1 REVERT JUMPDEST ISZERO PUSH2 0x1176 JUMPI JUMP JUMPDEST PUSH1 0x40 MLOAD PUSH3 0x461BCD PUSH1 0xE5 SHL DUP2 MSTORE PUSH1 0x20 PUSH1 0x4 DUP3 ADD MSTORE PUSH1 0x15 PUSH1 0x24 DUP3 ADD MSTORE PUSH21 0x125B9CDD59999A58DA595B9D081048185B5BDD5B9D PUSH1 0x5A SHL PUSH1 0x44 DUP3 ADD MSTORE PUSH1 0x64 SWAP1 REVERT JUMPDEST ISZERO PUSH2 0x11BA JUMPI JUMP JUMPDEST PUSH1 0x40 MLOAD PUSH3 0x461BCD PUSH1 0xE5 SHL DUP2 MSTORE PUSH1 0x20 PUSH1 0x4 DUP3 ADD MSTORE PUSH1 0x15 PUSH1 0x24 DUP3 ADD MSTORE PUSH21 0x125B9CDD59999A58DA595B9D081088185B5BDD5B9D PUSH1 0x5A SHL PUSH1 0x44 DUP3 ADD MSTORE PUSH1 0x64 SWAP1 REVERT JUMPDEST SWAP2 PUSH2 0x1203 DUP4 ISZERO ISZERO PUSH2 0xF1A JUMP JUMPDEST DUP2 ISZERO ISZERO DUP1 PUSH2 0x125D JUMPI JUMPDEST ISZERO PUSH2 0x1225 JUMPI DUP3 PUSH2 0xA03 PUSH2 0xA09 SWAP3 PUSH2 0x1222 SWAP6 PUSH2 0x10FF JUMP JUMPDEST SWAP1 JUMP JUMPDEST PUSH1 0x40 MLOAD PUSH3 0x461BCD PUSH1 0xE5 SHL DUP2 MSTORE PUSH1 0x20 PUSH1 0x4 DUP3 ADD MSTORE PUSH1 0x10 PUSH1 0x24 DUP3 ADD MSTORE PUSH16 0x496E76616C6964207265736572766573 PUSH1 0x80 SHL PUSH1 0x44 DUP3 ADD MSTORE PUSH1 0x64 SWAP1 REVERT JUMPDEST POP DUP1 ISZERO ISZERO PUSH2 0x120C JUMP INVALID LOG2 PUSH5 0x6970667358 0x22 SLT KECCAK256 PUSH18 0x91AD8839E254635EFEA080B0C69D683D39D0 0xD3 JUMP 0xBE PUSH23 0xDD5ED41EDCB06E82E64736F6C63430008180033000000 "
        },
        "methodIdentifiers": {
          "addLiquidity(address,address,uint256,uint256,uint256,uint256,address,uint256)": "e8e33700",
          "balanceOf(address)": "70a08231",
          "getAmountOut(address,address,uint256)": "4aa06652",
          "getAmountOut(uint256,uint256,uint256)": "054d50d4",
          "getPrice(address,address)": "ac41865a",
          "getReserves()": "0902f1ac",
          "initialize(address,address)": "485cc955",
          "removeLiquidity(address,address,uint256,uint256,uint256,address,uint256)": "baa2abde",
          "reserveA()": "dc5fa6c5",
          "reserveB()": "19e36f3b",
          "swapExactTokensForTokens(uint256,uint256,address[],address,uint256)": "38ed1739",
          "tokenA()": "0fc63d10",
          "tokenB()": "5f64b55b",
          "totalSupply()": "18160ddd"
        }
      }
    }
  }
}