{
  "_format": "hh-sol-artifact-1",
  "contractName": "SimpleSwap",
  "sourceName": "contracts/SimpleSwap.sol",
  "abi": [
    {
      "anonymous": false,
      "inputs": [
        {
          "indexed": true,
          "internalType": "address",
          "name": "user",
          "type": "address"
        },
        {
          "indexed": false,
          "internalType": "uint256",
          "name": "amountA",
          "type": "uint256"
        },
        {
          "indexed": false,
          "internalType": "uint256",
          "name": "amountB",
          "type": "uint256"
        },
        {
          "indexed": false,
          "internalType": "uint256",
          "name": "liquidity",
          "type": "uint256"
        }
      ],
      "name": "LiquidityAdded",
      "type": "event"
    },
    {
      "anonymous": false,
      "inputs": [
        {
          "indexed": true,
          "internalType": "address",
          "name": "user",
          "type": "address"
        },
        {
          "indexed": false,
          "internalType": "uint256",
          "name": "amountA",
          "type": "uint256"
        },
        {
          "indexed": false,
          "internalType": "uint256",
          "name": "amountB",
          "type": "uint256"
        },
        {
          "indexed": false,
          "internalType": "uint256",
          "name": "liquidity",
          "type": "uint256"
        }
      ],
      "name": "LiquidityRemoved",
      "type": "event"
    },
    {
      "anonymous": false,
      "inputs": [
        {
          "indexed": true,
          "internalType": "address",
          "name": "user",
          "type": "address"
        },
        {
          "indexed": false,
          "internalType": "address",
          "name": "tokenIn",
          "type": "address"
        },
        {
          "indexed": false,
          "internalType": "address",
          "name": "tokenOut",
          "type": "address"
        },
        {
          "indexed": false,
          "internalType": "uint256",
          "name": "amountIn",
          "type": "uint256"
        },
        {
          "indexed": false,
          "internalType": "uint256",
          "name": "amountOut",
          "type": "uint256"
        }
      ],
      "name": "Swap",
      "type": "event"
    },
    {
      "inputs": [
        {
          "internalType": "address",
          "name": "_tokenA",
          "type": "address"
        },
        {
          "internalType": "address",
          "name": "_tokenB",
          "type": "address"
        },
        {
          "internalType": "uint256",
          "name": "amountADesired",
          "type": "uint256"
        },
        {
          "internalType": "uint256",
          "name": "amountBDesired",
          "type": "uint256"
        },
        {
          "internalType": "uint256",
          "name": "amountAMin",
          "type": "uint256"
        },
        {
          "internalType": "uint256",
          "name": "amountBMin",
          "type": "uint256"
        },
        {
          "internalType": "address",
          "name": "to",
          "type": "address"
        },
        {
          "internalType": "uint256",
          "name": "deadline",
          "type": "uint256"
        }
      ],
      "name": "addLiquidity",
      "outputs": [
        {
          "internalType": "uint256",
          "name": "amountA",
          "type": "uint256"
        },
        {
          "internalType": "uint256",
          "name": "amountB",
          "type": "uint256"
        },
        {
          "internalType": "uint256",
          "name": "liquidity",
          "type": "uint256"
        }
      ],
      "stateMutability": "nonpayable",
      "type": "function"
    },
    {
      "inputs": [
        {
          "internalType": "address",
          "name": "",
          "type": "address"
        }
      ],
      "name": "balanceOf",
      "outputs": [
        {
          "internalType": "uint256",
          "name": "",
          "type": "uint256"
        }
      ],
      "stateMutability": "view",
      "type": "function"
    },
    {
      "inputs": [
        {
          "internalType": "uint256",
          "name": "amountIn",
          "type": "uint256"
        },
        {
          "internalType": "uint256",
          "name": "reserveIn",
          "type": "uint256"
        },
        {
          "internalType": "uint256",
          "name": "reserveOut",
          "type": "uint256"
        }
      ],
      "name": "getAmountOut",
      "outputs": [
        {
          "internalType": "uint256",
          "name": "",
          "type": "uint256"
        }
      ],
      "stateMutability": "pure",
      "type": "function"
    },
    {
      "inputs": [
        {
          "internalType": "address",
          "name": "_tokenIn",
          "type": "address"
        },
        {
          "internalType": "address",
          "name": "_tokenOut",
          "type": "address"
        },
        {
          "internalType": "uint256",
          "name": "amountIn",
          "type": "uint256"
        }
      ],
      "name": "getAmountOut",
      "outputs": [
        {
          "internalType": "uint256",
          "name": "amountOut",
          "type": "uint256"
        }
      ],
      "stateMutability": "view",
      "type": "function"
    },
    {
      "inputs": [
        {
          "internalType": "address",
          "name": "_tokenA",
          "type": "address"
        },
        {
          "internalType": "address",
          "name": "_tokenB",
          "type": "address"
        }
      ],
      "name": "getPrice",
      "outputs": [
        {
          "internalType": "uint256",
          "name": "price",
          "type": "uint256"
        }
      ],
      "stateMutability": "view",
      "type": "function"
    },
    {
      "inputs": [],
      "name": "getReserves",
      "outputs": [
        {
          "internalType": "uint256",
          "name": "_reserveA",
          "type": "uint256"
        },
        {
          "internalType": "uint256",
          "name": "_reserveB",
          "type": "uint256"
        }
      ],
      "stateMutability": "view",
      "type": "function"
    },
    {
      "inputs": [
        {
          "internalType": "address",
          "name": "_tokenA",
          "type": "address"
        },
        {
          "internalType": "address",
          "name": "_tokenB",
          "type": "address"
        }
      ],
      "name": "initialize",
      "outputs": [],
      "stateMutability": "nonpayable",
      "type": "function"
    },
    {
      "inputs": [
        {
          "internalType": "address",
          "name": "_tokenA",
          "type": "address"
        },
        {
          "internalType": "address",
          "name": "_tokenB",
          "type": "address"
        },
        {
          "internalType": "uint256",
          "name": "liquidity",
          "type": "uint256"
        },
        {
          "internalType": "uint256",
          "name": "amountAMin",
          "type": "uint256"
        },
        {
          "internalType": "uint256",
          "name": "amountBMin",
          "type": "uint256"
        },
        {
          "internalType": "address",
          "name": "to",
          "type": "address"
        },
        {
          "internalType": "uint256",
          "name": "deadline",
          "type": "uint256"
        }
      ],
      "name": "removeLiquidity",
      "outputs": [
        {
          "internalType": "uint256",
          "name": "amountA",
          "type": "uint256"
        },
        {
          "internalType": "uint256",
          "name": "amountB",
          "type": "uint256"
        }
      ],
      "stateMutability": "nonpayable",
      "type": "function"
    },
    {
      "inputs": [],
      "name": "reserveA",
      "outputs": [
        {
          "internalType": "uint256",
          "name": "",
          "type": "uint256"
        }
      ],
      "stateMutability": "view",
      "type": "function"
    },
    {
      "inputs": [],
      "name": "reserveB",
      "outputs": [
        {
          "internalType": "uint256",
          "name": "",
          "type": "uint256"
        }
      ],
      "stateMutability": "view",
      "type": "function"
    },
    {
      "inputs": [
        {
          "internalType": "uint256",
          "name": "amountIn",
          "type": "uint256"
        },
        {
          "internalType": "uint256",
          "name": "amountOutMin",
          "type": "uint256"
        },
        {
          "internalType": "address[]",
          "name": "path",
          "type": "address[]"
        },
        {
          "internalType": "address",
          "name": "to",
          "type": "address"
        },
        {
          "internalType": "uint256",
          "name": "deadline",
          "type": "uint256"
        }
      ],
      "name": "swapExactTokensForTokens",
      "outputs": [],
      "stateMutability": "nonpayable",
      "type": "function"
    },
    {
      "inputs": [],
      "name": "tokenA",
      "outputs": [
        {
          "internalType": "address",
          "name": "",
          "type": "address"
        }
      ],
      "stateMutability": "view",
      "type": "function"
    },
    {
      "inputs": [],
      "name": "tokenB",
      "outputs": [
        {
          "internalType": "address",
          "name": "",
          "type": "address"
        }
      ],
      "stateMutability": "view",
      "type": "function"
    },
    {
      "inputs": [],
      "name": "totalSupply",
      "outputs": [
        {
          "internalType": "uint256",
          "name": "",
          "type": "uint256"
        }
      ],
      "stateMutability": "view",
      "type": "function"
    }
  ],
  "bytecode": "0x608080604052346100165761129c908161001c8239f35b600080fdfe6080604052600436101561001257600080fd5b60003560e01c8063054d50d414610e885780630902f1ac14610e635780630fc63d1014610e3a57806318160ddd14610e1c57806319e36f3b14610dfe57806338ed173914610af9578063485cc95514610a3a5780634aa06652146109485780635f64b55b1461091f57806370a08231146108e5578063ac41865a1461080d578063baa2abde1461053c578063dc5fa6c51461051e5763e8e33700146100b657600080fd5b3461051957610100366003190112610519576100d0610eac565b6100d8610ec2565b604435916064359060c4356001600160a01b03811681036105195761010160e435421115610ed8565b6101156001600160a01b0382161515610f56565b6000546001546002546003546004549096909591939092906001600160a01b03808216908316816104db5750506001600160a01b038981169290841661015d81851415611085565b801515806104d2575b61016f90610f56565b6001600160a01b031992831617600055161760015595905b600254906003548215806104ca575b1561046d5750905096955b6040516323b872dd60e01b81523360048201523060248201526044810188905290602090829060649082906000906001600160a01b03165af180156104425761044e575b506040516323b872dd60e01b81523360048201523060248201526044810188905290602090829060649082906000906001600160a01b03165af1801561044257610413575b50826103db5761023a86866110ff565b600060038211156103cd5750808060011c6001810180911161039857905b8282106103ae5750505b6103e7198101908111610398576000805260056020526103e87f05b8ccbb9d4d8fb16ea74ce3c29a41f1b461fbdaff4714a0d9a8eb05499746bc55925b831561035a57610356946102e7876102ef946102df888c9660018060a01b038a16600052600560205260406000206102d883825461106b565b905561106b565b60045561106b565b60025561106b565b60035560408051858152602081018790529081018390526001600160a01b0391909116907f64b83944e79c3ce8d4c297411de637c3e102d064677aac0c163976ebdcd6f50e90606090a2604051938493846040919493926060820195825260208201520152565b0390f35b60405162461bcd60e51b8152602060048201526016602482015275496e73756666696369656e74206c697175696469747960501b6044820152606490fd5b634e487b7160e01b600052601160045260246000fd5b9091506103c4826103bf8184611112565b61106b565b60011c90610258565b901561026257506001610262565b6103ee816103e985886110ff565b611112565b6103fc856103e9868a6110ff565b8082101561040c57505b9261029f565b9050610406565b6104349060203d60201161043b575b61042c818361101b565b810190611053565b503861022a565b503d610422565b6040513d6000823e3d90fd5b6104669060203d60201161043b5761042c818361101b565b50386101e5565b61047b836103e9838d6110ff565b9282841161049b5750505061049460a4358210156111b3565b96956101a1565b8293506103e9906104ab936110ff565b97881115806104be575b6104949061116f565b506084358810156104b5565b508015610196565b50831515610166565b909990949361050193506001600160a01b03168a149150849082610506575b5050611132565b610187565b6001600160a01b031614905083386104fa565b600080fd5b34610519576000366003190112610519576020600254604051908152f35b346105195760e036600319011261051957610555610eac565b61055d610ec2565b9060a4356001600160a01b03811690036105195761057f60c435421115610ed8565b604435156107d75761059d60a4356001600160a01b03161515610f56565b6000805460015460025460035460045433865260056020526040909520546001600160a01b039384169791969295948416949390926105e99291168514908890826107c4575050611132565b6044358110610788576106649461066c8386610611610674966103e961064c9a6044356110ff565b98826106248b946103e9886044356110ff565b998a9761063560643587101561116f565b6106436084358a10156111b3565b60443590611078565b33600052600560205260406000205560443590611078565b600455611078565b600255611078565b60035560405163a9059cbb60e01b80825260a4356001600160a01b03166004830152602482018590529091602090839060449082906000905af19182156104425760209261076b575b5060405190815260a4356001600160a01b031660048201526024810183905293849060449082906000905af19283156104425760409361074c575b5082518281526020810182905260443560408201526001600160a01b0360a43516907f1dc8bb69df2b8e91fbdcbfcf93d951b3f0000f085a95fe3f7946d6161439245d90606090a282519182526020820152f35b6107649060203d60201161043b5761042c818361101b565b50836106f8565b61078190833d851161043b5761042c818361101b565b50856106bd565b60405162461bcd60e51b8152602060048201526014602482015273496e73756666696369656e742062616c616e636560601b6044820152606490fd5b6001600160a01b031614905087896104fa565b60405162461bcd60e51b815260206004820152600e60248201526d125b9d985b1a5908185b5bdd5b9d60921b6044820152606490fd5b3461051957604036600319011261051957610826610eac565b61082e610ec2565b60018060a01b036108608160005416928260015416600254948460035497161493849283956108d9575b505050611132565b8115908115806108d0575b610874906110c4565b156108a9575090670de0b6b3a764000090818102918183041490151715610398576020916108a191611112565b604051908152f35b670de0b6b3a7640000808302928304141715610398576020916108cb91611112565b6108a1565b5083151561086b565b16149050858080610858565b34610519576020366003190112610519576001600160a01b03610906610eac565b1660005260056020526020604060002054604051908152f35b34610519576000366003190112610519576001546040516001600160a01b039091168152602090f35b346105195760603660031901126105195760206108a1610966610eac565b610a09610971610ec2565b610a0360443591610983831515610f1a565b6001600160a01b039485169490811661099e86821415610fe1565b6109db826000541692600154169160025492600354946109cb818b1483819c8215610a30575b5050610fa5565b8214918215610a26575050610fa5565b80151580610a1d575b6109ed906110c4565b8515610a165780955b15610a0f57505b826110ff565b9261106b565b90611112565b90506109fd565b81956109f6565b508115156109e4565b1490508a806109c4565b149050838f6109c4565b3461051957604036600319011261051957610a53610eac565b610a5b610ec2565b600054906001600160a01b0390818316610abe5781169216610a7f83821415611085565b80151580610ab5575b610a9190610f56565b6bffffffffffffffffffffffff60a01b809216176000556001541617600155600080f35b50821515610a88565b60405162461bcd60e51b8152602060048201526013602482015272105b1c9958591e481a5b9a5d1a585b1a5e9959606a1b6044820152606490fd5b346105195760a03660031901126105195767ffffffffffffffff602460043560443583811161051957366023820112156105195780600401359384116105195736838560051b83010111610519576001600160a01b03936064359085821680830361051957610b6c608435421115610ed8565b610b77851515610f1a565b60028203610dcb57610b8a901515610f56565b856000541692866001541660025490600354928415610db657610bae898201610f91565b9460011015610db6579089610bc86044610bf29401610f91565b951699878b1495868015610dad575b610be090610fa5565b16968714908115610da3575b50610fa5565b610bfe85891415610fe1565b8215610d9a57610c18815b8415610d935783905b886111f7565b9680358810610d5957506040516323b872dd60e01b81523360048201523060248201526044810187905260209493929190858160648160008e5af1801561044257610c989587928b92610d3c575b5060405163a9059cbb60e01b81526001600160a01b039091166004820152602481019190915294859081906044820190565b038160008a5af19283156104425787948994610d1f575b5015610d0157610cc29361066c9161106b565b6003555b604051948552840152604083015260608201527fcd3829a3813dc3cdd188fd3d01dcf3268c16be2fdd2dd21d0665418816e4606260803392a2005b90610d1793610d0f9161106b565b600355611078565b600255610cc6565b610d3590873d891161043b5761042c818361101b565b508a610caf565b610d5290843d861161043b5761042c818361101b565b508c610c66565b60649060136040519162461bcd60e51b83526020600484015282015272125b9cdd59999a58da595b9d081bdd5d1c1d5d606a1b6044820152fd5b8290610c12565b610c1882610c09565b905086148a610bec565b508b8314610bd7565b88634e487b7160e01b60005260326004526000fd5b60405162461bcd60e51b815260206004820152600c818801526b092dcecc2d8d2c840e0c2e8d60a31b6044820152606490fd5b34610519576000366003190112610519576020600354604051908152f35b34610519576000366003190112610519576020600454604051908152f35b34610519576000366003190112610519576000546040516001600160a01b039091168152602090f35b3461051957600036600319011261051957604060025460035482519182526020820152f35b346105195760603660031901126105195760206108a16044356024356004356111f7565b600435906001600160a01b038216820361051957565b602435906001600160a01b038216820361051957565b15610edf57565b60405162461bcd60e51b8152602060048201526013602482015272151c985b9cd858dd1a5bdb88195e1c1a5c9959606a1b6044820152606490fd5b15610f2157565b60405162461bcd60e51b815260206004820152600d60248201526c125b9d985b1a59081a5b9c1d5d609a1b6044820152606490fd5b15610f5d57565b60405162461bcd60e51b815260206004820152600c60248201526b5a65726f206164647265737360a01b6044820152606490fd5b356001600160a01b03811681036105195790565b15610fac57565b60405162461bcd60e51b815260206004820152600d60248201526c24b73b30b634b2103a37b5b2b760991b6044820152606490fd5b15610fe857565b60405162461bcd60e51b815260206004820152600b60248201526a53616d6520746f6b656e7360a81b6044820152606490fd5b90601f8019910116810190811067ffffffffffffffff82111761103d57604052565b634e487b7160e01b600052604160045260246000fd5b90816020910312610519575180151581036105195790565b9190820180921161039857565b9190820391821161039857565b1561108c57565b60405162461bcd60e51b815260206004820152601060248201526f4964656e746963616c20746f6b656e7360801b6044820152606490fd5b156110cb57565b60405162461bcd60e51b815260206004820152600c60248201526b4e6f206c697175696469747960a01b6044820152606490fd5b8181029291811591840414171561039857565b811561111c570490565b634e487b7160e01b600052601260045260246000fd5b1561113957565b60405162461bcd60e51b815260206004820152600e60248201526d496e76616c696420746f6b656e7360901b6044820152606490fd5b1561117657565b60405162461bcd60e51b8152602060048201526015602482015274125b9cdd59999a58da595b9d081048185b5bdd5b9d605a1b6044820152606490fd5b156111ba57565b60405162461bcd60e51b8152602060048201526015602482015274125b9cdd59999a58da595b9d081088185b5bdd5b9d605a1b6044820152606490fd5b91611203831515610f1a565b8115158061125d575b156112255782610a03610a0992611222956110ff565b90565b60405162461bcd60e51b815260206004820152601060248201526f496e76616c696420726573657276657360801b6044820152606490fd5b5080151561120c56fea26469706673582212207191ad8839e254635efea080b0c69d683d39d0d356be760dd5ed41edcb06e82e64736f6c63430008180033",
  "linkReferences": {},
  "deployedLinkReferences": {}
}